:020000040000FA
:10000000C304A304030AA405C304A3046809C30426
:10001000A3043000C304A3046909C304A30431008A
:10002000C304A3046A09C304A3043200C304A304E1
:100030006B09C304A3043300C304A3046C09C30401
:10004000A3043400C304A3046D09C304A30435004E
:10005000C304A3046E09C304A3043600C304A304A9
:100060006F09C304A3043700C304A3047009C304C5
:10007000A3043800C304A3047109C304A304390012
:10008000C304A3047209C304A3043A00C304A30471
:100090007309C304A3043B00C304A3047409C30489
:1000A000A3043C00C304A3047509C304A3043D00D6
:1000B000C304A3047609C304A3043E00C304A30439
:1000C0007709C304A3043F006400C304A3041D0B09
:1000D000C008F908A408B008990892088208D8084E
:1000E0008008900888088308C608A10886088E083A
:0C00F000C304A3059D0BC304A304AC0AC9
:10015800A404C4047500F107B20AB30ABA0A70020B
:100168007102B0024306B1027500B502F307BD0A79
:10017800BE0AC70A72027302B2024306B302010C36
:100188002F000F02B5017600770010021101430617
:10019800CE0ACF0A0E0B7400B402DD0A010C280047
:1001A800030470037103E802D40A010C2F000F0244
:1001B800F401F107E00AE10AD20A010C280003045D
:1001C80076037703E802E30A11022F0010022E00DB
:1001D8000F0293004307F20A0E0292000307F50A82
:1001E800F60A010B11022F0010022E000E02B200B7
:1001F8000F020307F300B3001605010C28000304DF
:1002080031033003E802030B010CB40043070D0B64
:100218000E0BE10A15024306120B130B180B76029C
:100228007702B6024306B702170231001602300001
:100238000008080C0500FF0C0600000C0700A404C9
:10024800C4046500FF0C270065072B0B2C0B710BF2
:1002580006022E006F000E023A000F023B00050551
:100268001B022F001A022E00040C28004F032F0334
:100278002E03E8023A0B0E022800300CC8012400B5
:100288000002A404C40427002504070CA404C40421
:1002980039007C0C3800F8024F0BF9024F0B0000B4
:1002A800A404C40425051A020F0E2800300CC80146
:1002B80024000002A404C40427004504070CA40475
:1002C800C40439007C0C3800F802680BF902680B8A
:1002D8000000A404C4044505280B06022E006F0084
:1002E8000E023A000F023B00640C3000000C310093
:1002F8001B0233001A023200C304A3047B09C3049F
:10030800A304A404C40410022E0011022F000E023C
:100318002800300CC80124000002A404C4042700EB
:10032800640C3000000C31001B0233001A0232004A
:10033800C304A3047809C304A304A404C4041102D5
:100348003B0010023A000504070CA404C404390059
:100358007C0C3800F802AE0BF902AE0B0000A404C6
:10036800C40405050A0C3000000C31001B023300E0
:100378001A023200C304A3047B09C304A304A4041F
:10038800C40410022E0011022F000E022800300CA7
:10039800C80124000002A404C40427000A0C300089
:1003A800000C31001B0233001A023200C304A304FC
:1003B8007809C304A304A404C40411023B00100276
:1003C8003A002504070CA404C40439007C0C380046
:1003D800F802EC0BF902EC0B0000A404C404250598
:1003E800300CDA0124000002A404C40427004504E8
:0803F800620BC304A304000A18
:10073A00A404C4047500F307A30BA40BAB0B720249
:10074A007302B2024306B3027500B502F107AE0B9B
:10075A00AF0BB40B70027102B0024306B102100271
:10076A0011014306B90BBA0BF10B7400B402C80BA2
:10077A00010C2800030470037103E802BF0B010C8B
:10078A002F000F02F401F107CB0BCC0BBD0B1102AA
:10079A002F0010022E000F0293004307D60B0E0201
:1007AA0092000307D90BDA0BE40B11022F00100297
:1007BA002E000E02B2000F020307F300B300010C71
:1007CA002800030431033003E802E60B010CB400ED
:1007DA004307F00BF10BCC0B15024306F50BF60B96
:1007EA00FB0B72027302B2024306B3021302310018
:0607FA00120230000008AD
:021FFE00FAFFE8
:00000001FF
