:020000040000FA
:10000000C304A304030AA405C304A3046809C30426
:10001000A3043000C304A3046909C304A30431008A
:10002000C304A3046A09C304A3043200C304A304E1
:100030006B09C304A3043300C304A3046C09C30401
:10004000A3043400C304A3046D09C304A30435004E
:10005000C304A3046E09C304A3043600C304A304A9
:100060006F09C304A3043700C304A3047009C304C5
:10007000A3043800C304A3047109C304A304390012
:10008000C304A3047209C304A3043A00C304A30471
:100090007309C304A3043B00C304A3047409C30489
:1000A000A3043C00C304A3047509C304A3043D00D6
:1000B000C304A3047609C304A3043E00C304A30439
:1000C0007709C304A3043F006400C304A304D60B50
:1000D000C008F908A408B008990892088208D8084E
:1000E0008008900888088308C608A10886088E083A
:1003AC00000C0600A404C4040605020CA404C40436
:1003BC003200040C3100B90C3000F002E30BF102F6
:1003CC00E30BF202E30BEA0BA404C4040604020CD4
:1003DC00A404C4043200040C3100B90C3000F00247
:1003EC00F50BF102F50BF202F50BFC0BD80BC30469
:0403FC00A304000A4C
:021FFE00FEFFE4
:00000001FF
